:020000041000EA
:1000000000B5324B212058609868022188439860DF
:10001000D860186158612E4B002199600221596106
:100020000121F02299502B49196001219960352056
:1000300000F044F80222904214D00621196600F024
:1000400034F8196E01211966002018661A6600F04E
:100050002CF8196E196E196E052000F02FF8012189
:100060000842F9D1002199601B49196000215960AB
:100070001A491B48016001219960EB211966A021F2
:10008000196600F012F800219960164914480160C1
:100090000121996001BC002800D000471248134993
:1000A000086003C880F30888084703B5996A0420EC
:1000B0000142FBD001200142F8D103BD02B5186610
:1000C0001866FFF7F2FF186E186E02BD00000240BE
:1000D000000000180000070000035F00212200005C
:1000E000F4000018222000A00001001008ED00E03C
:1000F00000000000000000000000000074B24E7A12
:1001000000200420F7010010C3010010C5010010F9
:10011000C1010010C1010010C1010010C101001097
:10012000C1010010C1010010C1010010C701001081
:10013000C1010010C1010010C9010010CB01001065
:10014000CD010010CD010010CD010010CD01001037
:10015000CD010010CD010010CD010010CD01001027
:10016000CD010010CD010010CD010010CD01001017
:10017000CD010010CD010010CD010010CD01001007
:10018000CD010010CD010010CD010010CD010010F7
:10019000CD010010CD010010CD010010CD010010E7
:1001A000CD010010CD010010CD010010CD010010D7
:1001B000CD010010CD010010CD010010CD010010C7
:1001C00000BE00BE00BE00BE00BE00BEEFF3058054
:1001D000103800BEF2EB887148430B1078430B10C7
:1001E0003802001090A31AE71E481F49086006C88D
:1001F00081F3088810471D480068002801D019487D
:10020000F3E70DA40ECC002902D000F012F8F9E7B4
:100210001749184A002000E001C19142FCD116495B
:100220008847164988471649884700BEFDE701C937
:1002300001C29A42FBD3704778430B10C0000020E4
:10024000B012002068550B100000042000000420AC
:1002500068550B100010042000100420000000005E
:10026000704700000000000008ED00E0000000D032
:10027000B0120020B42D0120295400106904001090
:1002800021540010F8B5C04606480749091A8B10DA
:10029000C90FC91810B5491003D0044B002B00D06A
:1002A000984710BDB0120020B012002000000000DE
:1002B000054B10B5002B03D00449054800E000BFF2
:1002C000FFF7E2FF10BDC04600000000F82B012040
:1002D000BC5C071010B5104C2268EFF3108172B6A9
:1002E0001368002BFCD0BFF35F8F616002F05AFCF3
:1002F00000290CD0FA220023920003F077F80CCCEE
:10030000BFF35F8F0021116083F3108810BDFA21C5
:10031000890003F02DF8F2E7B01E0120F0B5DE46AB
:100320004E4645465746E0B50D000B89254E98468A
:10033000254FAB8983B08346140038680A8831683A
:100340000193AB880093434600F022FA6B6899460C
:10035000EB6899452CDC01229046AB682A689446EC
:100360009A4225DC22883068120A924602004146F1
:10037000103291400A003B6859680A42FCD151464C
:10038000043080001818017021788A4659680A42A2
:10039000FCD15346037001239A46AB68D44402341F
:1003A0006345DFDA01229446EA68E1449145D5DDF0
:1003B000584619F08DFA03B0F0BCBB46B246A946C8
:1003C000A046F0BD4C2D01204811002070B50B4D0A
:1003D0000C00280000F03AFB2023002801D1E05453
:1003E00070BD0122F021E2542B884900C91A6162D4
:1003F0006A880348A26205F02BFAF1E7182C012065
:10040000C05C071030B5134B134A1968134B83B007
:10041000186800F031F9A021F0204900400018F0E0
:10042000A3FD0F4D286019F0FFF927F08DF80401A6
:10043000241AA40220002EF0E7F80A4B011E1860CF
:1004400006D00023286800220093230019F078F8D2
:1004500003B030BD4C2D012044710710481100201D
:10046000E82B0120581E0120F0B5C64600B586B025
:1004700005F018F9FA20C00002F07EFAD024052019
:1004800001F03AFA2023240600220121A36205206C
:1004900001F0ACF9062001F02FFA40230022A362FC
:1004A0000121062001F0A2F902F07CFB5E4B1860EE
:1004B000596002F077FB5D4B1860596008F07CFAD8
:1004C000002800D0A6E0012108F066FA584D5949ED
:1004D000286807F09BFE584B2E681B68070098465B
:1004E000564B1320F5182D0D0635EDB2290001F0FD
:1004F00063F929000125122001F05EF92B00132277
:1005000041463000009507F053FF2B001222414670
:100510003000009507F04CFF7B19FA011B031343D1
:10052000474A414613400393464B3A0005938023C4
:100530005B020293444B3000049302AB07F092FF3E
:1005400041462B008B40326811201343336001F089
:10055000D3F9042001F0D0F9142001F0CDF90920DD
:1005600001F0CAF98021102380228902616263624E
:10057000F1335203FF3362626362616162616361FE
:1005800024F00CF8314833F02BFAFFF73BFF304BE7
:100590003049186819F00AF92F4805F0D5F82F4CA2
:1005A0002F49200008F0B6F90321022001F004F9D8
:1005B0000321080001F000F900222900022001F0C7
:1005C00015F903200022290001F010F9200000F0A5
:1005D000D5F900281AD01FF079FE040029001FF079
:1005E00001FF204920001FF005FF1F4800F0B8FA66
:1005F00000F0DEFA1D4B186019F07CFC02F0D2FA14
:100600002BF0BCFB0A2002F0B7F9F7E7184805F019
:100610009BF8FEE7174805F097F80120404206B026
:1006200080BCB846F0BDC04680140020881400206D
:10063000481100206C7107104C2D01200000E0AF24
:10064000FFFFFF9F1348102000000650D502001046
:10065000E82B01201D030010EC5C07102012002085
:10066000A0860100CD030010405D0710F42B01208F
:10067000105D0710D85C0710F0B54546DE465746BA
:100680004E46E0B5137883B0040090460193002BEA
:1006900074D001250B002F0018339F400B1D9B00C9
:1006A0009946D02310311B068D409B468144A7609C
:1006B000A3683B42FCD00120002102F0E7F85B4632
:1006C000324A1B69012013405A460021D36102F0CF
:1006D000DDF843469A782E0063681E401D42FAD129
:1006E0004B461A70019B012B26D0A760A3683B42A2
:1006F000FCD003230120434400219A4602F0C6F8AF
:100700005B4610221B6901205340204A0021134000
:100710005A46D36102F0BAF80199BC4601390F007C
:1007200050464946825D63681D42FCD101360A701D
:10073000BE42F7D367468946A760A3683B42FCD018
:100740000120002102F0A2F85B46104A1B6901203B
:100750009A4313005A460021D36102F097F84346AA
:100760005B789800C01802F007F943461B78023303
:10077000984443461B780193002B98D103B0F0BCFA
:10078000BB46B246A946A046F0BDC04610000200D6
:10079000F0B54746CE4680B585B06E462A25B27084
:1007A00035703371150A1A0A02AB98460F00694674
:1007B0002B23F27042460400088E898E1370030AC0
:1007C00053700B0AD3703B007570012618339E409E
:1007D000E94690701171A660A3683342FCD00120F5
:1007E000002102F053F8D022120613696249012059
:1007F0000B40D361002102F049F83B000125103382
:100800009D4063681D42FCD13B1D9B00E7182A23D5
:100810003B70A660A3683342FCD00120002102F0A7
:1008200035F8D02210211206136901204B4052499D
:100830000B40D361002102F029F84A4601A8517803
:1008400063682B42FCD1013239708242F7D1A66035
:10085000A3683342FCD00120002102F017F8D02217
:1008600012061169444B01208B43D361002102F031
:100870000DF8A660A3681E42FCD00120002102F002
:1008800005F8D022120613693B4901200B40D361C1
:10089000002101F0FBFF63681D42FCD12B233B705C
:1008A000A660A3681E42FCD00120002101F0EEFFEB
:1008B000D02210211206136901204B402E490B4013
:1008C000D361002101F0E2FF424603A8517863683A
:1008D0001D42FCD1013239709042F7D1A660A36865
:1008E0001E42FCD00120002101F0D0FFD0221206D0
:1008F0001169214B01208B43D361002101F0C6FF18
:10090000A660A3683342FCD00120002101F0BEFFA5
:10091000D02212061369184901200B40D36100212F
:1009200001F0B4FF63682B42FCD12C233B70A6601E
:10093000A3683342FCD0D0240F4D0120002101F0E8
:10094000A5FF2A002406236901209A43E2610021C1
:1009500001F09CFF0120002101F098FF1022236983
:10096000012053402B400021E36101F08FFF05B0CF
:10097000C0BCB946B046F0BD10000200F0B5D024AE
:10098000802585B06D002406082000F0B5FF656263
:100990001420A56101F0F0FF96206561400001F090
:1009A000EBFF244804F0D0FEA8236A46D3730F223D
:1009B000214DA73B3821280000936A4407F0D2FF5D
:1009C00001282DD10E2600276E4401233200382144
:1009D0002800009707F0D0FF0400012820D13178CB
:1009E000164804F035FFA3236A46D3730F2238213B
:1009F00028000094A23B6A4407F0B4FF012814D1F8
:100A00000123320038212800009707F0B5FF0128A4
:100A10000BD131780A4804F01BFF012005B0F0BD6E
:100A2000084804F091FE0020F8E7074804F08CFE27
:100A30000020F3E74C5D071020120020885D0710AE
:100A4000CC5D0710605D0710A45D0710F0B5464649
:100A50004F46D64602230A24C0B5002684B003AD13
:100A60003E4F2B706C44013B804626702A00382193
:100A70003800009307F076FF01280FD101232200F0
:100A800038213800009607F077FF012806D10F23A0
:100A9000227813402370013B012B06D9002004B0BB
:100AA000E0BCBA46B146A846F0BD03236A46D372FD
:100AB0000B220090023B382138006A4407F052FFB5
:100AC000814603000128E9D12A0038213800009628
:100AD000033307F051FF0428E0D1F022AB78120174
:100AE0001B0292461340EA78207813434246138053
:100AF00052462B781B0213406A78134342465380B8
:100B00000128CCD909236A46D3724B460B220093A5
:100B10003821012338006A4407F024FF01281AD144
:100B200004232A0038213800009607F025FF042806
:100B300011D15246AB7820781B021340EA78134358
:100B40004246938052462B781B0213406A78134327
:100B50004246D380A3E70120A1E7C046201200202F
:100B600010B500F001F810BD802100B50300074862
:100B7000C3B0074A0090490002A82CF0E3FA02A88B
:100B80002CF0BCFD034B186043B000BDEC5D0710BA
:100B9000E45D0710402C012010B527F0E7F90400B0
:100BA000006825F0F9F920002DF070FD10BDC04659
:100BB000F0B5CE46474680B5454B85B01A78002A39
:100BC00001D101321A7000200CF066F8D2214900E0
:100BD00004000EF05FFDBE21200049000EF076FDFE
:100BE0003C4826F0E3FC03AB187002040002120E2E
:100BF000000E5A70987003992000002214F0C0FE75
:100C0000354B002219682000002300F0A5F90500EB
:100C1000324B1900994616F027F8280006210EF0ED
:100C20005DFE2621280049420EF0CCFC4821280018
:100C300049420EF0E3FC200000F004FB0521060011
:100C40000EF04CFE4D21300049420EF0BBFC0C2151
:100C5000300049420EF0D2FC04202DF0D5FC0700F4
:100C600025F092F949468046200016F049FA002105
:100C700000F0A6FA00220100404625F061FB434641
:100C8000390020003B600CF031FD3B0029222000A0
:100C900013490DF09DFD0021300000F083FD00267A
:100CA000020000230A21280000960CF0EFFC20002F
:100CB0000CF01EFD002302682F21200000960CF08E
:100CC000E5FC200005B0C0BCB946B046F0BDC0464A
:100CD000AE2D01201A1A1A00402C0120FC5D0710CD
:100CE000990B001010B527F041F90400006825F0B9
:100CF00053F920002DF0CAFC10BDC04630B583B0BA
:100D00000D00040024F040FF0302010E2A002068B9
:100D10001B0A13F003FD03B030BDC046F0B5C64654
:100D200000B5714B040098461B780E006F4D9CB0C7
:100D3000002B00D17BE06E4F200035F059F9040004
:100D40006C4915F0B9FF200014F0D6FA29002000F4
:100D5000002213F0F5FB20223900200013F0F0FBF5
:100D600020003EF0A5F9050031003EF0AFF9092161
:100D700028000EF0B3FD04202DF046FC050025F000
:100D800003F9060004A824F0C3FB5B4F04A8390054
:100D900024F0C2FE210004A824F0AEFEFF2204A825
:100DA000002124F0B3FE04A8C82124F0A9FEC42128
:100DB00004A8C90524F0D2FE04AA3000002125F0C1
:100DC000FBF8012104A824F0BDFE04A824F0A0FB38
:100DD000390004A824F0A0FE210004A824F08CFE11
:100DE000002204A8142124F091FE04A8C82124F0B4
:100DF00087FEDA2104A8C90524F0B0FE04AA300059
:100E0000002125F0D9F804A8012124F09BFE290037
:100E100020002E600CF06AFC2B00292220003749AC
:100E20000DF0D6FC20001CB080BCB846F0BD2800F8
:100E300028F002FFFF21280029F066FA304826F04A
:100E4000B5FB01AB187002040002120E000E5A70BE
:100E500098700199280029F047FA2800294929F0BB
:100E60003BF92800274929F04FF90C21280029F0E7
:100E700043FC1821280029F0EFF91821280029F057
:100E8000F3F90C21280029F0D7F90C21280029F0CA
:100E9000DBF91D4826F0C2FB02AB18700204000209
:100EA000120E000E5A7098700299280029F0C4FBA7
:100EB0000F4F380028F0C0FE134826F0AFFB03ABFD
:100EC000187002040002120E000E5A7098700399F6
:100ED000380029F049FC3321380029F055FC012362
:100EE0004246137028E7C046AF2D0120582D01203F
:100EF000702D0120085E0710FD0C0010E50C00109D
:100F000062370000FFFFFF3FFF0F000010B5002910
:100F100003D10CF0EDFB006810BD0020FCE7C046DB
:100F200010B527F023F80400006825F035F82000FC
:100F30002DF0ACFB10BDC04630B583B00D000400F1
:100F400024F022FE0302010E2A0020681B0A13F07F
:100F5000E5FB03B030BDC046F0B5CE46474680B590
:100F60001F008E4B040099461B780E008C4D9DB0DF
:100F7000002B00D1B4E08B4B9846200035F038F8B8
:100F80000400894915F098FE3A00012120000CF078
:100F900099F9200014F0B0F929002000002213F084
:100FA000CFFA20224146200013F0CAFA20000BF0AD
:100FB00073FE05007D490EF06DFB28007B490EF0A5
:100FC00085FB28000022002114F0EAFC2800002202
:100FD000002114F08DFD28000022002114F076FC81
:100FE00028000022002114F07BFC280000220021B0
:100FF00014F058FC28000022002114F05DFC0022AF
:10100000280010210BF070FE092128000EF066FC6C
:1010100028003BF0E5FB050031003CF08BF909218D
:1010200028000EF05BFC04202DF0EEFA050024F001
:10103000ABFF060004A824F06BFA5D4F04A839004A
:1010400024F06AFD210004A824F056FDFF2204A824
:10105000002124F05BFD04A8C82124F051FDC42127
:1010600004A8C90524F07AFD04AA3000002124F068
:10107000A3FF012104A824F065FD04A824F048FA88
:10108000390004A824F048FD210004A824F034FD10
:10109000002204A8142124F039FD04A8C82124F05A
:1010A0002FFDDA2104A8C90524F058FD04AA300058
:1010B000002124F081FF04A8012124F043FD290030
:1010C00020002E600CF012FB2B0029222000394951
:1010D0000DF07EFB20001DB0C0BCB946B046F0BD8F
:1010E000280028F0A9FDFF21280029F00DF9324839
:1010F00026F05CFA01AB187002040002120E000E1A
:101100005A7098700199280029F0EEF828002749B4
:1011100028F0E2FF2800254928F0F6FF0C212800DE
:1011200029F0EAFA1821280029F096F81821280059
:1011300029F09AF80C21280029F07EF80C212800CB
:1011400029F082F81D4826F069FA02AB18700204F3
:101150000002120E000E5A7098700299280029F0B1
:101160006BFA104B1800984628F066FD134826F0DD
:1011700055FA03AB187002040002120E000E5A70EA
:1011800098700399404629F0EFFA3321404629F040
:10119000FBFA01234A461370EFE6C046B02D01204A
:1011A000642D01207C2D0120185E0710FFFFFF3FFA
:1011B000390F0010210F001062370000FF0F0000F0
:1011C00010B5002903D10CF093FA006810BD00207F
:1011D000FCE7C04610B526F0C9FE10BD10B526F0DC
:1011E000C5FE0400006824F0D7FE20002DF04EFA62
:1011F00010BDC04670B5040026F0AEFE051E10D02E
:10120000200026F0B3FE041E0BD00021280015F0AC
:1012100067FC002805D03EF015F90100200048F0D9
:10122000EBFE70BD30B583B00D00040024F0ACFCC3
:101230000302010E2A0020681B0A13F06FFA03B0A4
:1012400030BDC046F0B5DE4657464E464546E0B591
:10125000B3B00BF021FD0400FE4915F02DFD200078
:10126000042123F01BF920000022062114F02EFB9C
:1012700020000022062114F033FB2000002206216A
:1012800014F010FB20000022062114F015FB2000B2
:101290000022042114F08CFE00220421200014F00E
:1012A0009BFEED4826F082F919AB1870020400028B
:1012B000120E000E5A70987000222000199914F036
:1012C0005FFB9621200049000EF000FAF02120007B
:1012D0000EF0E0F9200048F0E9FCE049050015F0C7
:1012E000C3FC642025F034FE010028000EF0D2F982
:1012F000280032210EF0EAF900222800032114F020
:101300006FFD2000D649FFF709FDD64B019019006B
:101310000A9315F0A9FC2000D349FFF7FFFCD34A3C
:10132000029011000B9215F09FFC2000D049FFF7AE
:10133000F5FCD04E039031000C9615F095FC200082
:10134000CD49FFF7EBFCCD4F049039000D9715F018
:101350008BFC2000CA49FFF7E1FCCA4B059019003D
:101360000E9315F081FC2000C749FFF7D7FCC74A50
:10137000069011000F9215F077FC2000C449FFF78A
:10138000CDFCC44E07903100109615F06DFC200086
:10139000C149FFF7C3FCC14F08903900119715F000
:1013A00063FC2000BE49FFF7B9FCBE4B0990190051
:1013B000129315F059FC2000BB49FFF7AFFC8246A1
:1013C000BA4A1100139215F04FFC504637210EF027
:1013D00061F92000B649FFF7A1FCB64E8346310003
:1013E000149615F041FC2000B349FFF797FC8146A5
:1013F000B24F3900159715F037FC484637210EF0EB
:1014000049F92000AE49FFF789FC0700AD4B1900F0
:10141000169315F029FC380082210EF03BF92000CC
:10142000A949FFF77BFC8046A84A1100179215F0E6
:101430001BFC404637210EF02DF9A54E2B00310044
:101440000A2201980DF0C4F92B0031000A220298FB
:101450000DF0BEF92B0031000A2203980DF0B8F907
:101460002B0031000A2204980DF0B2F92B00310054
:101470000A2205980DF0ACF92B0031000A220698DB
:101480000DF0A6F92B0031000A2207980DF0A0F903
:101490002B0031000A2208980DF09AF92B00310038
:1014A0000A2209980DF094F92B0031000A225846BF
:1014B0000DF08EF92B0031000A2250460DF088F90C
:1014C0002B0031000A2248460DF082F92B00310032
:1014D0000A2240460DF07CF92B000A227D49380093
:1014E0000DF076F904202DF08FF8060024F04CFD65
:1014F00005001AA824F00CF8774F1AA8390024F038
:101500000BFB21001AA824F0F7FAFF221AA80021E9
:1015100024F0FCFA96211AA8490024F0F1FAC4211B
:101520001AA8C90524F01AFB1AA8020000212800F5
:1015300024F042FD01211AA824F004FB1AA823F08C
:10154000E7FF39001AA824F0E7FA21001AA824F0CE
:10155000D3FA00221AA83C2124F0D8FA96211AA81E
:10156000490024F0CDFAD8211AA8C90524F0F6FACA
:101570001AA802000021280024F01EFD1AA801214B
:1015800024F0E0FA0A99200015F0BAFD0021FFF7D7
:10159000BDFC64220100280024F0D2FE0B9920003B
:1015A00015F0AEFD0021FFF7B1FC962201002800E6
:1015B00024F0C6FE0C99200015F0A2FD0021FFF7D3
:1015C000A5FCC8220100280024F0BAFE0D992000D5
:1015D00015F096FD0021FFF799FCFA220100280082
:1015E00024F0AEFE0E99200015F08AFD0021FFF7D1
:1015F0008DFC962201005200280024F0A1FE0F99D4
:10160000200015F07DFD0021FFF780FCAF220100D6
:101610005200280024F094FE1099200015F070FD6F
:101620000021FFF773FCC82201005200280024F0BB
:1016300087FE1199200015F063FD0021FFF766FC7D
:10164000E12201005200280024F07AFE12992000C5
:1016500044E0C046305E0710EFB48D00385E0710DE
:10166000705F0710405E07107C5F0710485E071030
:10167000545E0710505E071050620710585E071046
:10168000645E0710605E07106C5E0710685E0710EE
:10169000745E0710705E07107C5E0710785E07109E
:1016A000845E0710805E0710885E07108C5E07104E
:1016B000985E0710945E07109C5E0710A05E0710EE
:1016C000A85E0710B05E0710BC5E0710C05E071072
:1016D000F5110010D51100102512001015F010FDA5
:1016E0000021FFF713FCFA2201005200280024F029
:1016F00027FE1399200015F003FD0021FFF706FCDB
:10170000254A0100280024F01BFE1499200015F042
:10171000F7FC0021FFF7FAFB962201009200280057
:1017200024F00EFE1599200015F0EAFC0021FFF7C9
:10173000EDFB1A4A0100280024F002FE1699200051
:1017400015F0DEFC0021FFF7E1FBAF220100920063
:10175000280024F0F5FD1799200015F0D1FC002198
:10176000FFF7D4FBAF2201009200280024F0E8FD2F
:101770003100200035600BF0B9FF33002922200032
:1017800007490DF025F8200033B0F0BCBB46B24647
:10179000A946A046F0BDC046260200008A0200000D
:1017A000DD11001010B5002903D10BF0A1FF006876
:1017B00010BD0020FCE7C046094A83009A1810B506
:1017C00014684022544080322240064CC000A44697
:1017D00063441A60044B9C466044416010BDC0469F
:1017E00004C0014004D0014000400140074B80008C
:1017F000C3181B68C90092000A435A400C231340C7
:10180000034A9446604403607047C04604C00140E8
:1018100004D001408000002905D0064B9C460223DD
:10182000604403607047044B9C460223604403609D
:10183000F8E7C04604E0014004F00140D0231B0655
:101840001B6830B50500584243412F205B4283435B
:101850000E48EC0884460720284080008140200084
:101860000B4D3C3063448000A40041511B19002AF9
:1018700005D08022920194466344196030BDC02295
:101880009201944663441960F8E7C0463041014034
:1018900000400140D023F0B5C6461B0698461B68A1
:1018A0000C4F9B001600FA5804000D0000B51042C2
:1018B00009D1290014430D203200FC5000F092F9A8
:1018C00080BCB846F0BD01F041FC43461B689B005C
:1018D000FA58EEE7302C012010B504000D2000F07E
:1018E0007BFAD0231B061B6802499B005A58A2436F
:1018F0005A5010BD302C01200123D0228340120603
:1019000093629361094A83009A18116840225140FA
:1019100080320A400649C0008C4663441A60054B79
:101920009C460523604443607047C04604C00140A4
:1019300004D00140004001408023DB051868000FFF
:101940007047C0460FB400B5084883B003F0FCFEF2
:10195000049B002B07D005A91800019103F046FD58
:10196000034803F0F1FE012003F058FDCC5E0710A0
:10197000A05D0710EFF3108072B6034A1368002BC6
:10198000FCD0BFF35F8F70472C0100D0BFF35F8F97
:101990000022024B1A6080F3108870472C0100D09F
:1019A00070B5EFF3108C72B60D4D2B68002BFCD088
:1019B000BFF35F8F0724CB08C618C05C01230C401F
:1019C000A3401C000440034207D118433070BFF30A
:1019D0005F8F2C608CF3108870BD1000FFF7B2FF92
:1019E0002C0100D0F8B54746CE46884680B5EFF3C7
:1019F000108C72B61C4D2C68002CFCD0BFF35F8F8E
:101A00009A4222D807210126894602E001329342F8
:101A100018D34D4637001540AF40D4080119045D76
:101A20002742F3D110003C430C70BFF35F8F0022BC
:101A30000D4B1A608CF3108800280EDBC0BCB94631
:101A4000B046F8BD01204042EFE7BFF35F8F0023AF
:101A50002B608CF31088012040424346002BEDD0D0
:101A60000898FFF76FFFC0462C0100D030B5EFF3A8
:101A7000108C72B60A4C2368002BFCD0BFF35F8F2A
:101A8000072301220B409A40CD08435D9343435501
:101A9000BFF35F8F002323608CF3108830BDC046F6
:101AA0002C0100D0044A1078431CDBB2172B00D95C
:101AB000102313707047C0464C11002010B5064B20
:101AC000064C82B00100009318221F232000FFF76C
:101AD00089FF02B010BDC046DC5E07107C1E0120ED
:101AE0000021044B044ABFF35F8F02C39342FAD133
:101AF0007047C046000100D0800100D0054B064A67
:101B00001360064A136053609360D360136153619E
:101B1000936170478080808000E400E004E400E08E
:101B20001F2318401E3B8340002905D0C021044AD2
:101B30004900535013607047802201498B50FAE7E7
:101B400000E100E001228240034B1B6813405A1E53
:101B50009341D8B27047C04600E100E001238340C2
:101B6000014A13607047C04600E200E0064B1030A7
:101B70009B688000C358054A00209B1A2F229A4276
:101B80004041C0B27047C04600ED00E05011002057
:101B900070B50D00EFF3108672B60F4A1368002B74
:101BA000FCD0BFF35F8F0D4B10309B6884001B5936
:101BB0000B4A934203D09D4201D001F0C7FA074B74
:101BC0009B681D51BFF35F8FBFF35F8F0022024BF5
:101BD0001A6086F3108870BD240100D000ED00E08B
:101BE000CD010010F0B557464E46DE464546E0B5FD
:101BF00085B0060000911700EFF3108B72B66A4AA9
:101C00001368002BFCD0BFF35F8F0025674B5D5737
:101C10009A46002D00DAA9E06B00654C01935B1930
:101C20009B009846A146C1444B4652469B791036CC
:101C30001370604BB6009B6899590B1B2F2B33D93F
:101C40005D4B994200D0ACE0019B42469C465B4B09
:101C50006544AD0063535A4B0232A218043B9B1AF1
:101C60001B05584A5B0D651913436B80564B0121C8
:101C7000AB80FF23AB71009BEF71AB604B460B4316
:101C800019004C4B9B689951BFF35F8FBFF35F8F77
:101C90000022454B1A608BF3108805B0F0BCBB46A0
:101CA000B246A946A046F0BD01200A008243D3797E
:101CB0008C46BB4231D84546130044491B1B5B414F
:101CC0005943090D3D4B63533D4B02356519043BA8
:101CD0005B1B1B053B4D5B0D2B43AA464D466B80A2
:101CE0000425AC465546E044131F44441B1B1B050A
:101CF0005B0D1D434B46997100999D809960494643
:101D0000DF71334B01431360BBE75800C0188000FC
:101D10002018C179B9422FD902000623D356002BCF
:101D2000F3DA02932B4B61460393131D9A46042367
:101D30005B429C46E14450464B461B1A1B055B0D1B
:101D40009C46204B957198466346404603439380DA
:101D5000019B5A199200039BA418A380029B1C4A62
:101D6000A371009B2260E771A3608AE701F0EEF99E
:101D7000002553465D574FE7908802934005131D99
:101D80009A46031561469C464046D4446346043057
:101D90002018181AE0230005400D1B021843039079
:101DA000C5E701F0D3F94FE7240100D0AA2D0120A7
:101DB0005011002000ED00E0CD01001000A1FFFF58
:101DC0008011002000E0FFFF01BDFFFFAAAA000074
:101DD0000148804701BD0000F0B5DE4657464E463B
:101DE0004546E0B50C0083B0EFF3108872B6634A45
:101DF0001368002BFCD0BFF35F8F614B61499A6879
:101E0000030010339F00D55901938D4243D0A54262
:101E100054D05D4EAA1B2F2A3DD85C4B9B461B68B5
:101E2000994601231A009C4682404B4613401F22CC
:101E300099466346024093409A4680225B4650464C
:101E40009850BFF35F8FEFF305839B46002B37D08D
:101E5000019B5B4501D001F079F901232A009A43E7
:101E60009068844208D176E04B005B189B00F31821
:101E70009868844236D01A00062151560029F3DAB8
:101E8000844254D04B46002B27D0C02251463F4BB2
:101E90005200995019603A4B9B68DD51BFF35F8F38
:101EA000BFF35F8F0022354B1A6088F3108803B0B0
:101EB000F0BCBB46B246A946A046F0BD0D00EAE71D
:101EC0002A0063469A4390688442D5D10620105672
:101ED000130000280ADA0D0031E0802351462B4A16
:101EE000D150D8E706201856002821DB42001118EF
:101EF000890074188B46A1689960E179D97106212F
:101F000061569971002924DBA488F11A640524150F
:101F10005C44091909051E4C490D21439980131889
:101F20001C4A9B001178F31899711070AAE71300EE
:101F30005946002914D1FF319171174991801549F3
:101F40000A789A71154A9B1B5B415A43120D0A701D
:101F500098E71149E2E70620105613000028C5DA79
:101F60000F4A1049D21A083A5002400D0143998095
:101F70000D4952080A43DA8084E7C046240100D0A4
:101F800000ED00E0CD0100105011002000E100E064
:101F900000E0FFFFAA2D012001BDFFFFAAAA00005B
:101FA0008A11002000F0FFFF00F8FFFF10B5830842
:101FB000040003202040FF24054AC00094468440CA
:101FC00081409B0063441A68A2430A431A6010BD13
:101FD00000E400E070B501240443EFF30581EFF362
:101FE000108C72B6214A1368002BFCD0BFF35F8FB0
:101FF0001F4B05001F4AED1A6D416A43120D1E4D1D
:102000008900AE6852B27658A6421CD006215956B5
:1020100091421CD012215956914222D01E2159566C
:10202000914220D02A2159560324914210D0134BBB
:1020300019781A708171BFF35F8F00220B4B1A6001
:102040008CF3108870BDAB680D4C5C50EFE700243A
:102050006100091989005B18FF219971094999806C
:10206000E5E70124F4E70224F2E7C046240100D0AA
:1020700050110020AAAA000000ED00E0AA2D0120C6
:10208000CD01001001BDFFFF1F2110B5091A024844
:10209000FFF7ECFC10BDC046B12D012010B5084B78
:1020A000084C82B001000093002205232000FFF7B6
:1020B00099FC002801DB1F23181A02B010BDC0468E
:1020C000F85E0710B12D012070B504000E00150058
:1020D000FFF7E8FC0100200000F006F8A680E5808C
:1020E000BFF35F8F70BDC046024B9C4661448900C0
:1020F000016070474000003470B5114C114DAC4286
:102100000FD2FF262368002B0CD0FFF7CBFC010079
:102110002000FFF7E9FFA680BFF35F8F0834AC42D1
:10212000F0D370BDFFF7BEFC01002000FFF7DCFF1D
:102130002671BFF35F8F0834AC42E3D3F1E7C046AA
:10214000A8120020B012002010B50400FFF7AAFC6E
:1021500001002000FFF7C8FFFF232371BFF35F8F4B
:1021600010BDC04610B50400FFF79CFC0100200024
:10217000FFF7BAFFFF23A380BFF35F8F10BDC046F8
:1021800010B504000120FFF799FC034BC3189B0016
:102190002360BFF35F8F10BD40000034034B9C46AB
:1021A000614489000160BFF35F8F704740000034D5
:1021B0000A4B1968EFF3108072B60A68002AFCD047
:1021C000BFF35F8F1B68BFF35F8F00221A6080F33D
:1021D000108840BF002000217047C046482D0120D4
:1021E000F0B5DE4657464E464546E0B587B0EFF3BC
:1021F0000583032201251A40954091008846A9468F
:10220000B34B03925C58B34B1D60B34B04934B46E6
:10221000B24843630823E55E002D37DAA3881BB27A
:10222000002B00DBADE0A379002B00D0EEE008230B
:10223000E05E002820DB430062691B18DB00D31836
:102240009E68DD68731C00D111E1A448010041447F
:10225000826A0B69B71A9B1A9F4215D30123026A3F
:10226000039883401A420FD09C4800F093FC8D42A3
:1022700002DCCCD18642CAD940BF07B0F0BCBB4615
:10228000B246A946A046F0BD0E61EDE762696B005B
:1022900092465B19DB009A4453469E68DF6800F063
:1022A00079FC8F42BADC00D103E1002F00DAE8E0CC
:1022B0005246534652691B699346049A934200D191
:1022C000D9E052460821605E528800045946104306
:1022D0009847009001910099019A0B001000134358
:1022E00000D1CEE013000A00B61A9F41002806DB99
:1022F0007A4800F04FFC009E019F36184F4153462C
:102300009E60DF6000229A5E002A00DA86E75300B2
:1023100099186069C900411802938B68C9689B4687
:10232000B94200DD7AE702D1B34200D976E708234B
:102330009C46A444059565462281A446029B2C0038
:1023400006E053009918C90041188D68C968AB466A
:102350009B18DB00C318B94206DC00D1B3E01C00B7
:102360000023E25E002AECDA230064469C465346D2
:102370001A806346059D1D80A3881BB2002B00DADE
:1023800051E72269EFF3108172B61368002BFCD07D
:10239000BFF35F8F0123A7885B42A3803FB223690D
:1023A000BFF35F8F00221A6081F31088002F00DADC
:1023B00039E72300083322009A4666697B00DB195F
:1023C000DB00F318996850468C460824115FDD68DD
:1023D000002910DB029306E0AB4244D00023E15E0B
:1023E0002000002906DB4C006418E4003419E3687F
:1023F000AB42F1DD029B078000201F5E1980002F99
:10240000DCDA1400A379002B00D110E70023A371BC
:1024100026000823E15E08364B1C00D12CE708009B
:10242000A246656902E03E004B1C1AD04B005B18C7
:10243000DB00EF180A008C46E95E7B881BB2002B9C
:10244000F1DA01235B42DC17BB60FC60824205D0FD
:10245000534631801B893B8053461A8160464B1C92
:10246000E4D15446E5E6A3686345B7D9C2E76B1CDF
:1024700000D0EAE6F8E65B4658461B699847002814
:102480001BD153461B8822692381EFF3108372B658
:1024900011680029FCD0BFF35F8F514662880A8023
:1024A00022696580BFF35F8F0021116083F310887C
:1024B000B4E6864200D8F8E6B0E65B461A685B6888
:1024C0000092019307E7B34500D848E74CE7C046C0
:1024D000202C01203C700540E12100100040054007
:1024E00070B52E4C2569002D04D00A212C48FFF729
:1024F000FBFD70BD2B4E0321300000F041FBE66078
:10250000FFF7D0FA284B03229C46D02322701B06EB
:102510001B6801216370254B6044A3600F2380007A
:1025200020610220638063694942A18019800231E1
:10253000198647311D83585218315A5275325C3909
:102540009952183201319952183201319952183288
:1025500001319952083518329D5202311832995280
:102560001832013199521832013199521832013121
:1025700099521832013199521832013199520C4B4B
:102580000C49DC6001303562FFF702FB01210320BA
:10259000FFF7C6FA084B1D60A7E7C0469811002058
:1025A000482D01200040054040000034FFFF10008E
:1025B000202C0120E12100103860054000487047C0
:1025C00098110020F8B51F0008AB1B780400160016
:1025D000002B08D100F0E6FA32003B00121A8B41C2
:1025E000002B00DA52E02269EFF3108072B6136814
:1025F000002BFCD0BFF35F8F0223E15E63694A00CA
:102600005218D2009B182269002936DB1D8865808C
:10261000BFF35F8F0025156080F31088069A9E60D7
:10262000DF601A61079A5A615A8801325204520CCB
:10263000101C002A1FD082B258800804104326695B
:10264000EFF3108772B63268002AFCD0BFF35F8FB9
:10265000A2881A80A1802369BFF35F8F00221A60CD
:1026600087F310880A4923788C4601329A40E36840
:1026700063441A60F8BD0120DDE7BFF35F8F0023DC
:10268000136080F3108801204042F3E70020F1E757
:102690003C20000070B501000469EFF3108C72B6A5
:1026A00020680028FCD0BFF35F8F02200D5E4C69CC
:1026B00068004019C00024180869002D36DB268800
:1026C0004E80BFF35F8F002606608CF31088E360B6
:1026D00063880498013320615B0405985B0CA26059
:1026E00060611A1C002B1FD093B22804628018432B
:1026F0000A69EFF3108C72B61368002BFCD0BFF39D
:102700005F8F8B8823808D800B69BFF35F8F0022E2
:102710001A608CF310880B7801329A40CB68084914
:102720008C4663441A6070BD0122DDE7BFF35F8F02
:10273000002303608CF3108801204042F3E7C04679
:102740003C20000010B543890A1493421ADD53005F
:102750009B184269DB00D3180469EFF3108C72B642
:102760002268002AFCD0BFF35F8F5A88090494B214
:10277000090C8A4208D00369BFF35F8F00221A60F8
:102780008CF31088002010BD8022120214435C805C
:10279000012302698371BFF35F8F002111608CF305
:1027A0001088044902788C469340C2680120624434
:1027B0001360E8E73C20000040787047F0B5060061
:1027C0000F0006246442E517C646A4197D4100B5F2
:1027D00082B08D4214D811D000F0E4F922002B0011
:1027E000121A8B41002B15DC002B44D0300039002D
:1027F00000F016FA02B080BCB846F0BD8442EBD9B6
:102800000024002500F0CEF922002B00121A8B4183
:10281000002BE9DD00F0C6F922002B00121A8B41D3
:10282000002B0ADB00230193144B22000093144871
:102830002B00FFF72FFF0130D8D0A046290000243D
:10284000104A1148536A994204D8956A4545CDD239
:102850009942CBD10568EFF3108C72B62B68002B30
:10286000FCD0BFF35F8F0368BFF35F8F1C608CF3F6
:10287000108820BFE6E7002AB8D0CBE7B1210010CE
:102880009811002000400540482D0120F0B5C646B3
:1028900000B582B004000D0000F084F924184D4109
:1028A000002D02DA01242F4D644206267642F717E6
:1028B00036196F41AF4214D811D000F073F93200CD
:1028C0003B00121A8B41002B15DC002B46D0200058
:1028D000290000F0A5F902B080BCB846F0BDA642C0
:1028E000EBD90026002700F05DF932003B00121AF8
:1028F0008B41002BE9DD00F055F932003B00121A44
:102900008B41002B0ADB00230193174B320000930D
:1029100016483B00FFF7BEFE0130D8D00023390037
:10292000B0469C46124A1348536A994204D8966AA4
:102930004645CCD29942CAD10668EFF3108772B6E9
:102940003368002BFCD0BFF35F8F0368BFF35F8F4A
:1029500066461E6087F3108820BFE5E7002AB6D0E0
:10296000C9E7C046FFFFFF7FB1210010981100208A
:1029700000400540482D0120F0B5C64600B582B0A4
:10298000040000F00FF9FA2206000F0020000023D7
:102990000021920001F066F88019794104000D1EB3
:1029A00002DA01242E4D644206267642F7173619C4
:1029B0006F41AF4214D811D000F0F4F832003B0060
:1029C000121A8B41002B15DC002B46D02000290069
:1029D00000F026F902B080BCB846F0BDA642EBD9A3
:1029E0000026002700F0DEF832003B00121A8B416F
:1029F000002BE9DD00F0D6F832003B00121A8B41C3
:102A0000002B0ADB00230193164B3200009316487B
:102A10003B00FFF73FFE0130D8D000233900B0461D
:102A20009C46124A1248536A994204D8966A46450F
:102A3000CCD29942CAD10668EFF3108772B63368D8
:102A4000002BFCD0BFF35F8F0368BFF35F8F664638
:102A50001E6087F3108820BFE5E7002AB6D0C9E7DB
:102A6000FFFFFF7FB12100109811002000400540BA
:102A7000482D0120F0B557464E46DE464546E0B5A6
:102A800006000F0085B0EFF3058399468B46002BB7
:102A900012D0384900204B6ABB4206D38A6ADB1B3E
:102AA000591E8B41B2424041184305B0F0BCBB46B1
:102AB000B246A946A046F0BD2F4B9A46DB68984621
:102AC00053461B784046039300F064F84246039B4C
:102AD000040004339B009B580D001B1A3900300082
:102AE000001BA941894510DC0DD020BF214A0020E0
:102AF000536A5B45D9D3926ADB1B591E8B41B242A4
:102B000040411843D1E78342EFD900F04BF832003F
:102B10003B00121A8B41002B1ADB00230193174B49
:102B20003200009350463B00FFF7B4FD011E0FDD5D
:102B3000104B5A6A5A451BD39B6AB34216D3504670
:102B4000FFF700FE0B4A0020536A5B45ADD3D2E786
:102B5000084A0020536A5B45A7D30020926ADB1B1A
:102B6000B24240415A1E934118439EE75A45E6D16E
:102B700020BFE4E70040054098110020B12100107B
:102B800010B5024A0248FEF70BFF10BD145F071094
:102B9000801E01200300416A0A00986A596A8A422D
:102BA000FAD17047034B596A0A00986A596A9142F0
:102BB000FAD170470040054070B504000D00174A77
:102BC000536A1900966A536A8B42FAD13000190091
:102BD00024184D41AB4216D813D0104B2A005B6A23
:102BE0009D4203D90D494B6A9342FCD3934207D1CE
:102BF0000A4A02E0516A994202D1916AA142F9D38C
:102C000070BDA642E9D9054B5B6A1C005A1CEFD087
:102C1000012201246442E5175242E3E700400540E7
:102C2000064A536A9942FCD807D1044B02E05A6A1B
:102C3000914202D19A6A9042F9D87047004005400B
:102C4000F8B5040006200D0000F078F9002844D003
:102C5000374B3849E3185A1E934180221204944698
:102C60005B429B0D344A9B0563441360334A1360F7
:102C700018000A689043FBD12D4B314AE3185942A2
:102C80004B4180215B0049000620995200F056F923
:102C90002900C00000F06CFB0130C3091ED14027A1
:102CA00001226262A362266BF30722D4E36A254BFA
:102CB0000620E51800232B60266300F03FF9390059
:102CC000800000F055FB7023E26A5A400E33134037
:102CD0002B601D4B23630323A364F8BD1B4A93425F
:102CE0001ED900231A4A1B4F6262A362266BF307A8
:102CF000DCD5194B144AE3181A60656AA36A0620EA
:102D0000AD01ED1800F01AF9144900F031FBAD02E5
:102D10000100280000F02CFB0021FFF74DFFC5E764
:102D20004006800E9F011A003F180300B9E7C04615
:102D30000080FCBF08C0004000E0004000F0004000
:102D4000882D01202C10000001030000FEFF000070
:102D5000FFFF0000C0FF3F00303000004E0E0000BB
:102D6000F8B5DE464E4657464546E0B58B4605006B
:102D70000A991800160000F0FBFA0A9B6C001F026B
:102D8000324B64199C46A4006444636881469F42A8
:102D900000D967602B1FDBB29846012B30D9C023C6
:102DA00080229B01E31812011A60294BAD0059598A
:102DB0009A4600291BD17301E026226853401E4029
:102DC000802342465B01E3181E60012A30D980232C
:102DD00080229B01E31812011A6053464A4667603D
:102DE0005A51F0BCBB46B246A946A046F8BD586948
:102DF00000F0BEFA013043001B18033BFDD2DAE7B6
:102E00005B46012BCBD1C02303229B01E3181A6040
:102E1000023AA3681A42FCD07301E0262268AD0092
:102E200053401E4080230A4A5B019246E3181E600D
:102E30005A462168514003220A401A6001225B462B
:102E40009A40A3681A42FCD0C1E7C0460080004007
:102E5000881E0120F0B546464F46D646C0B51F0035
:102E6000344B44009C462418A4006444636888469C
:102E70001600FF2B02D880235B006360031FDBB2C8
:102E80009A46012B30D9C02380229B01E3181201FE
:102E90001A60294B85005959994600291BD17301A5
:102EA000E026226853401E40802352465B01E3180F
:102EB0001E60012A30D9802380229B01E318120171
:102EC0001A6080235B0063604B465F51E0BCBA46EA
:102ED000B146A846F0BD586900F04AFA01304300F7
:102EE0001B18033BFDD2DAE74346012BCBD1C023AD
:102EF00003229B01E3181A60023AA3681A42FCD02D
:102F00007301E0262268850053401E4080230A4A50
:102F10005B019146E3181E6042462168514003223E
:102F20000A401A60012342469340A2681342FCD033
:102F3000C1E7C04600800040881E0120014B800090
:102F4000C0587047881E0120F8B5040021481E00B3
:102F500017000D0000F00CFA0100380000F008FA2C
:102F6000069B36041B031E432368002B20DB1A4BF1
:102F70001A49E3185A1E93418022920194465B42FB
:102F80001B0B174A1B0363441360164A13601F0090
:102F90000A689743FBD1144B2560E2182123A060F7
:102FA00013602368002BFCDA0823E6601360F8BD89
:102FB0003F2322681340AB42D9D1A3681B051B0DE8
:102FC0008342D4D1EE22E368D2021340B342CED181
:102FD000EDE7C046001BB7000040FDBF08C0004041
:102FE00000E0004000F000400430000010B58024F4
:102FF0001C4BE4051C6000281AD001231A4C18430E
:103000001A4BDC611A4C44401C6259629862802160
:10301000144BC9051960174817490860E021C90415
:103020001960002A07D18022144B12061A6010BDC5
:103030000E4BD861EBE753019B1A9B009A18802333
:1030400012015B049A4209D213000D490B60074B31
:103050005A608022094BD2051A60E8E7094B1A0032
:10306000F3E7C04600B00540D3C007B0008005407C
:103070002D3FF84FFCFF01000820014000A0054053
:10308000EC2B0120FFFFFF008023024A9B000B4333
:10309000D362704700800540002310B50100988A74
:1030A0001B8B984710BDC046162310B50100188829
:1030B00002331B88984710BDF8B54746CE4680B509
:1030C0000F1E18D01423994604330400002501264E
:1030D00098464B461888434621681B88984701C488
:1030E000431E984101350640AF42F2D13000C0BCCA
:1030F000B946B046F8BD0126F8E7C046002370B5D2
:1031000004000D00988A05491B8B98470300002096
:10311000002C01DB0130A0402900984755420000F7
:10312000AA23064A1B0113608D235B00D360044968
:10313000044B19605368002BFCDA704700400240D2
:1031400000B0FA00006002407047C04610B5014868
:10315000FEF7F8FB385F071070B5074D074EB54214
:1031600009D20024013E761BB60808CD98472300FB
:103170000134B342F9D170BD785C0710B45C07101C
:10318000054B064A06491A60064A074B1A601000AA
:103190000B689843FBD1704700E00040BFCDFBFEB9
:1031A00008C00040FE7F3C0000F00040044BDB6C98
:1031B000002B03D18022034BD2021A607047C04615
:1031C000000011504C201150044A054B1A60054A6A
:1031D0001368DB018033FBD17047C046FFFFFF015E
:1031E00000F0004008C000404022034B9A675A6735
:1031F0001A67DA667047C04600F0014010B5FEF766
:103200006FFC10BD70B5044D044CA968C0222000AD
:1032100000F084FCAC6070BD00ED00E00000002018
:10322000002310B5294C82B0A367FFF779FF012274
:10323000274B1A60636C012BFCD10322254B1A60CB
:10324000224A936B012BFCD1013300930121224AC6
:1032500022480433FFF778FE052301210093204A1A
:103260002048FFF771FE0022022104201E4BFFF7C9
:10327000F1FD0022012105201C4BFFF7EBFD002290
:10328000002107201A4BFFF7E5FD0022002108204E
:10329000174BFFF7DFFD8023DB00009300220021A6
:1032A0000920134BFFF75CFD0022104B0021062084
:1032B000FFF7D0FD0420FFF741FE0E4900F058F85B
:1032C00001000020FFF7E0FE02B010BD00800040CA
:1032D0003CB0004030B00040002F685900800240F0
:1032E000008C864700C00240001BB700405973079E
:1032F000006CDC0240420F0001480421014B1847DA
:10330000B0110020B9300010014B5B681847000075
:10331000B0110020014B9B6818470000B01100203D
:10332000124A936F9B0815D29066D166002905D08A
:10333000FFE7FFE7FFE7516F106F704704B580218B
:103340000906C2175140002800D0C84372F03CFC67
:10335000002104BDF0B5146E556E576F166FFFF760
:10336000E3FF1466556657671667F0BD000000D08E
:10337000114A936F9B0813D210665166002905D03D
:10338000FFE7FFE7FFE7516F106F704704B50028B4
:1033900001D00020C04372F017FC002104BDC046DC
:1033A000F0B5146E556E576F166FFFF7E5FF146694
:1033B000556657671667F0BD000000D094464A4A2C
:1033C000926F9208624601D228E0C046F0B5464EA0
:1033D000346E756E776F366F00F020F89446424A6F
:1033E00014665566576716676246F0BD94463E4AB6
:1033F000926F9208624601D254E0C046F0B53A4E50
:10340000346E756E776F366F00F04CF89446364A1E
:1034100014665566576716676246F0BD002B24DBBD
:1034200011D000293EDA00B5C943404200D1013134
:1034300000F038F8C943404200D10131DB43524229
:1034400000D1013300BD002AEBD1002801D10029B1
:1034500005D00020C90FC90701D1C043410800B5FC
:1034600072F092FB0022002300BD00B500290ADBA8
:10347000DB43524200D1013300F014F8C94340420B
:1034800000D1013100BDC943404200D10131DB43CD
:10349000524200D1013300F005F8DB43524200D123
:1034A000013300BD002923D1002B18D1002A0CD0F4
:1034B000BC460D4F38667A6600210023FFE7FFE720
:1034C000FFE77A6F386F67467047002801D00748DA
:1034D000010000B572F058FB0022002300BD02007D
:1034E0000B00002000217047000000D0FFFFFFFF0D
:1034F000002B00D0BFE0130C28D1002AE7D080B405
:10350000114F39667A66FFE7FFE730B4040C7B6F32
:10351000396F1B0423433B667A66FFE7FFE7FFE74B
:10352000C04684B27B6F3D6F1B0423433B667A66C3
:10353000FFE7FFE7C04600232C042D0C7A6F386F9D
:1035400000196941B0BC7047000000D0F0B5944646
:103550000025140E01D112020835140F01D11201F9
:103560000435940F01D192000235D40F01D15200DD
:103570000135D40B0134254F7C66254C3C660E0C7E
:1035800093B2FFE7FFE7FFE73C6F6643360C770334
:10359000BE467343DF0B5B04C01AB941130C73437F
:1035A000DB18C91ACE086643360CB64493B273438F
:1035B0001F0F1B01C01AB941130C73431F0B1B05CE
:1035C000C01AB941860D8F023E436643360C092D61
:1035D00024DB520A7243801A7703460A6643360C8C
:1035E00016235B1BDE40DF40BF1964466643821B27
:1035F0007046043506330100D940A840C01900D3F5
:103600000131A24206D20023F0BD0000000000D02C
:10361000FFFFFFFF121B0130F3D3F1E709277F1BE8
:10362000FE406446A2B27243801A00D20139220CD5
:103630007243130C1204821A99410B007046043530
:1036400013370100F940A840801900D30131002B45
:1036500002D1A2420AD2F0BD013000D30131121BC7
:10366000FAD2013BF8D1A24200D2F0BD013000D322
:103670000131121BF7E7F0B51C0C00D080E00CB450
:1036800000251C0A04D11B02160E33431202083512
:103690001C0B04D11B01160F3343120104359C0B84
:1036A00004D19B00960F334392000235DC0B02D10C
:1036B00092185B4101351C00971864410134464F54
:1036C0007C66464C3C660E0CFFE7FFE7FFE7C04612
:1036D0003C6F6643360C7703BE4697B27743C01BF8
:1036E00000D20139C01B00D201399FB27743C91BF8
:1036F000C91B170C77437E04FF0B801BB941CE0812
:103700006643360C0C2D33DBB644120B1F053A43CF
:103710001B0B97B27743C01B00D201399FB277438E
:10372000C91B170C77433E043F0C801BB941860D23
:103730008F023E43664329277F1BFE400C3D7746A0
:10374000AF40BF1930BCA2B2ABB272437343801A10
:103750009941220C7243130C1204801A9941020001
:103760000B000137001BA941F9D2781E0021F0BDE2
:103770000C277F1BFE4077467F0BAF40FF19E0E729
:1037800000245D1C07D0144F7D663966FFE7FFE714
:10379000FFE7FFE73C6F95B29EB265436643401B6F
:1037A000B141150C1E0C6543664336042F0C3E4395
:1037B0002D04401BB141994204D202000B002000AD
:1037C0000021F0BD01D19042F7D3801A9941013414
:1037D0009942F2D3F6E70000000000D0FFFFFFFFA0
:1037E00048404140484018B4134B5B68019308BD02
:1037F00018B4114B1B68019308BD94460F4A926F91
:10380000920805D2624618B40B4BDB68019308BDE1
:103810000A4AF0B5146E556E576F166F6246FFF781
:10382000F2FF064A1466556657671667F0BD18B46E
:10383000014B9B68019308BD90140020000000D04C
:10384000FFB550404240504059404B40594000E085
:10385000FFB5154F4C00640D03D0BC4204D10C03DE
:1038600014D80020090D09055C00640D03D0BC428A
:1038700004D11C030AD800221B0D1B0501264B4056
:1038800009D44B4003D58B4200D18242FFBD9942FF
:10389000FCD19042FFBD0B43DB1803431343F5D02B
:1038A000C9434918FFBD0000FF07000000B5FFF73E
:1038B000CFFF804100BDC04600B5FFF7C9FF01D969
:1038C000002000BD012000BD00B5FFF7B9FF01D900
:1038D000002000BD012000BD00B5FFF7B1FF804111
:1038E00000BD012040054A00121804D85A001218E1
:1038F00001D80020704701207047000000210028F7
:1039000005D17047C1174840401AFAD0C90713B50E
:10391000064B1B6898470CBC441CA2401005120BB8
:103920000349091B09051943114310BD442C01200B
:103930001F04000010B54C00620D8023D218DB007C
:10394000D21A5B057E2A10DD9E3A13DACC170903E2
:10395000490819435242D140640001341532202AEB
:1039600005DAD0400843604310BD002010BD084672
:10397000604310BDC80FC018013810BD18B4024B09
:103980005B6A019308BD00009014002010B5014847
:10399000FDF7D8FF445F0710132370B51D78012D84
:1039A00019D014DD1D48FFF77FFB06001C48FFF708
:1039B0007BFB1C4C80223100200000F0AFF8022D70
:1039C00006D01948FFF768FB184B186070BD154CFE
:1039D000174BA364F5E7174B124C23606360A36099
:1039E000E36023616361A361E36123626362A362B5
:1039F000E36223636363A363E36323646364A36495
:103A0000E36423656365A365E36523666366A36674
:103A1000E36623676367A367E367D9E7534400005E
:103A200053460000901400204C330000442C012029
:103A3000393A00108D39001007B5604601880A0A2E
:103A40000230DF2AFAD1C9B2820804D30288408842
:103A50000004104300E00068014A5050039007BD85
:103A60009014002051434343C9188C46110C83B273
:103A70004B4310B4040C614392B280B25043624392
:103A80001C041B0C001910BC59411304120CC01863
:103A9000514161447047000010B50148FDF752FFE5
:103AA00048610710132310B510481C78FFF7FCFA83
:103AB0000100012C0AD003DD80220D4800F02EF811
:103AC0000C48FFF7E9FA0C4B186010BD084C542263
:103AD000200000F023F82200084980322368002BE0
:103AE00000D1216004349442F8D1E9E75346000044
:103AF000482C01204C330000442C0120993A00103E
:103B000001480421014B1847C0110020B9300010B2
:103B1000014B1B6818470000C0110020014B5B6877
:103B200018470000C01100207047C046F8B557463E
:103B3000DE464E464546E0B599460A9B07009A4642
:103B40000D9B884693460B9C9B073BD10C9B9C424C
:103B50003DD21E1B0B9415000C005E442A004B4600
:103B6000013521002020B847B542F7D1A0460B9C73
:103B7000002C20D0454636195346321B013C185DB7
:103B800029004B46B847002CF6D12B00350098464B
:103B90000D9B9B070FD55B46EC1A0C9BA3420AD9E1
:103BA000464698462A004B46310020200134B8474B
:103BB00001354445F6D32800F0BCBB46B246A946C1
:103BC000A046F8BD16001500002CD3D1E0E7160082
:103BD0001500002CCED1EEE7F0B54546DE4657463F
:103BE0004E46E0B585B09C4610AB1B78149F9346BB
:103BF00098460F9C129E139DBB074CD4002D42D1BA
:103C0000B44248D201233B4099460E9B013B9A4661
:103C1000302304E0524601341355A64201D9202C2A
:103C2000F8D14B46002B00D183E00E9B013B994617
:103C30003023A54205D82EE04A4601341355AC4244
:103C400029D0202CF8D1FB060CD57B0554D4A642F4
:103C500063D0A54261D0119B102B50D0022B57D0BE
:103C6000202C32D1202301930E9B5A4600930397B8
:103C700063460295FFF75AFF05B0F0BCBB46B2465B
:103C8000A946A046F0BD01233B40994601233B4293
:103C90002AD1B442B9D3FB061CD57B05DBD4002C5A
:103CA000D5D1119B102B5BD0119B022B6BD03023F5
:103CB00001240E9A13704346002B10D17B073ED58A
:103CC0002B260E9A631C1655CDE7230001343026AF
:103CD0000E9AD654202CC5D04346002BEED02D266C
:103CE0000E9A631C1655BEE74346002B2FD0013DAC
:103CF000B44200D289E798E7119B102BB2D1BB06E2
:103D000037D5202CAED058230E9A13550134A7E78F
:103D1000202CA7D02300013407E0631E012CC0D063
:103D2000119A102A31D0022AD1D162260E9AD65485
:103D300096E7FB06CED57B0500D488E78BE723000A
:103D40003E0790D520260E9A013316558BE70C239B
:103D50003B405A1E9341ED1AB44200D255E764E746
:103D6000BB060ED478230E9A0224137030235370AE
:103D7000A1E7202C00D175E778230E9A1355013462
:103D80006EE75823EFE76033EDE70E9AA61E9146E3
:103D90004E44BA0602D55822327098E77822327023
:103DA00095E7C04610B5002800D110BD01F082FC97
:103DB000FBE7C0460B0010B5002802D049681B681D
:103DC000984710BDF0B55746DE464E464546E0B52D
:103DD00095B083460F00924698461E9A1F9B10008E
:103DE0001900209EFFF77DFD002800D0EAE11E9813
:103DF0001F990122C54B5242FFF758FD002800D001
:103E000014E11E981F990122C14B5242FFF764FD35
:103E1000002800D0E9E01E981F990022BD4BFFF753
:103E20005BFD002800D0C8E01E981F990022BA4B05
:103E3000FFF73CFD002800D0BFE01E981F9900222C
:103E40000023FFF733FD002800D0E4E000230B93AC
:103E5000229B5B0500D406260024302307E01721AF
:103E600006AA013452181355013E202C01D0092E08
:103E7000F5D81E981F99FFF75DFDA84BF2009B181F
:103E80001A685B68050008920993FFF73BFD020082
:103E90000B001E981F99FFF7A6FC089A099BFFF7D5
:103EA000C6FC06900791FFF769FD8146FFF726FDE6
:103EB00002000B0006980799FFF795FC0022984B2B
:103EC00006900791FFF708FD002800D10DE10123BE
:103ED0009C46E1444846FFF711FD02000B0008989C
:103EE0000999FFF7E9FC002802D000239946013523
:103EF000002E00D1D9E006954D46B94614E006AA39
:103F0000944617230A216344280001341F19FFF740
:103F10002FFA3031397028000A21013EFFF728FAC4
:103F2000092D00D817E10500202CE8D14F46069D49
:103F300020240CAE06AA17239446634499465B4698
:103F4000B34606930FE04B4628000A210134E618D9
:103F5000FFF7E6F93031280031700A21FFF7E0F968
:103F6000051E00D1E4E0202CEDD1069B5E469B4669
:103F70000323229A1340012B18D1219B002B15D02B
:103F80000B9B002B00D1FDE0219B013B2193202BBB
:103F90000CD93023219A07E0172006A9013409180B
:103FA0000B55944200D3CCE0202CF5D1229B0194F8
:103FB0000393219B0096029322E0229B5246049396
:103FC000219B3900039358461E9B1F9C0296009329
:103FD0000194434600F04AF90400200015B0F0BCFB
:103FE000BB46B246A946A046F0BD229B5B070FD454
:103FF00003224C4B22990192039121990093029143
:104000004346524639005846FFF790FD0400E4E766
:104010000422454BEEE71E9A1F9B00200021FFF76C
:10402000E2FB01231E901F910B9311E7229B544644
:104030009B0711D1219B042B0ED9219B55469C46F1
:104040005E46043C64442A00434601353900202082
:10405000B047A542F7D1B346344D26002B1F9946F1
:104060005B46A3461C003200E87843463900013D18
:10407000A04701364D45F6D123005C469B46229B66
:1040800004349B07A9D55346219AE31A9A42A4D92E
:104090005E4615002200434639002020B0475346B3
:1040A0000134E31A9D42F5D897E72800FFF72AFC70
:1040B00002000B001E981F99FFF795FB0022184B7A
:1040C00006900791FFF7F2FB0CAE002800D031E715
:1040D000069807990022124BFFF7FEFB002800D03C
:1040E00028E7012301359D4324E70022069807991C
:1040F0000B4BFFF7DBFB002800D0F9E64B46002B0B
:104100005CD101239C46E144F2E6C046FFFFEFFF8D
:10411000FFFFEF7F65CDCD4165CDCDC18073071029
:104120000000E03FB85F0710B05F0710C05F0710E6
:10413000069B5E469B460323229A1340012B00D127
:1041400081E0202C00D131E70B9B002B27D02D23C1
:10415000335501342AE74F46069D202C00D1E7E66F
:104160003022331907E0172006A9013409180A552F
:10417000202C00D1DCE6A342F5D12E220CAE013476
:10418000F254D7E60C23229A134257D0219B013BCD
:104190002193A34200D9FCE6202C00D106E7229B04
:1041A0005B0703D52B2333550134FFE6229B1B0706
:1041B00000D4FBE6202333550134F7E6DB0700D4B7
:1041C00096E69EE7229B55469B0711D1219B032B28
:1041D0000ED9219B54469C465E46033D6544220011
:1041E0004346013439002020B047AC42F7D1B346F2
:1041F000B9465F461C4EEC1C2A00B078434649463F
:104200000135B847013EAC42F6D1229BBB464F4632
:104210009B0700D4E1E65346219AE31A9A4200D85C
:10422000DBE65E4615002200434639002020B047F9
:1042300053460134E31AAB42F5D3CEE6219BA342A9
:1042400000D9A6E6B2E6219B002B00D179E70B9BB3
:10425000002B97D0219B013B21939C4200D298E6F2
:10426000202C00D073E7A1E6BC5F0710F0B5DE4656
:1042700057464E464546E0B599B081468B46924634
:104280009846229A239B10001900FFF72AFB00286A
:1042900000D0CAE0229823990122824B5242FFF7B4
:1042A0001BFB002800D0C0E02298239901227E4BFE
:1042B0005242FFF7FBFA002800D0B6E0229823997B
:1042C00000220023FFF7F2FA002800D0C9E1229B68
:1042D000239C08930994089809998023269ADB0067
:1042E0001A400D928022269C1201144022000B9449
:1042F000269C07000E001C4200D0ADE00B000343DB
:1043000000D0D5E0002A00D00AE222000633249330
:10431000022313400C930223134200D002E2259B98
:10432000042B00D20FE2043B0B93002304250A93D5
:104330000022229823990023FFF7B8FA002800D022
:1043400003E25A4B269A134004930B9B0393249B3E
:104350000293089B099C0093019459464346524698
:104360004846FFF72FFD02002020269B1F27034011
:1043700059424B415B421840531C089359464346EF
:104380004530C8470A9AD317D4185C40D30F0A9314
:104390006B1E0B9308AB9C460025674401E0202D63
:1043A0000FD020000A21FEF7E3FF01357E193031DE
:1043B000317020000A21FEF7DBFF26000400092EE1
:1043C000EDD8052306930B9B5946059300230493D0
:1043D0000A3303930A9B4846029310AB0093089A52
:1043E00043460195FFF7F8FB0C9B002B2DD053465D
:1043F000C41A259BA34228D94D465F4681461E001C
:10440000534639001A19202043460134A847A642D2
:10441000F6D8534648462599C21A013200239142E4
:1044200000D386E1013018180FE0269B0493259BEA
:104430000393249B0293229B239C00930194434665
:10444000524659464846FFF7BDFC19B0F0BCBB4682
:10445000B246A946A046F0BD01432BD10B9B2200DA
:10446000002B00D154E700230A93249B0A9A0024CE
:10447000934200DD85E12298239900220023FFF773
:1044800015FA002800D035E1269B084A02941A400C
:104490008023DB0013430493259B0393089B099C13
:1044A000CBE7C046FFFFEF7FFFFFEFFFFFF7FFFF08
:1044B00006232493B44B70009C46400D6044FFF7E4
:1044C00021FAB24AB24BFFF7B2F9B24AB24BFFF748
:1044D0008FF93603B14B360B334304000D0038001F
:1044E00019000022AE4BFFF77EF9AE4AAE4BFFF744
:1044F0009EF902000B0020002900FFF779F9FFF771
:1045000019FA0A90FFF7FEF9A84AA94B04000D001A
:10451000FFF78DF90022A74BFFF76AF9FFF70AFAB8
:10452000A54A0600A54B20002900FFF780F90400EA
:1045300030000D000C96FFF7E5F9A14AA14BFFF7FB
:1045400076F902000B0020002900FFF74CF9020069
:104550000B0006000F00FFF76AF9320004000D009F
:104560003B0030003900FFF743F900220E900F9115
:10457000954B20002900FFF740F90022934BFFF7ED
:1045800037F902000B0020002900FFF736F900225E
:104590008F4BFFF72DF902000B0020002900FFF7D9
:1045A0002CF90D008021040032003B000020C905D9
:1045B000FFF719F902000B0020002900FFF718F996
:1045C00002000B000E980F99FFF717F90022734BAA
:1045D000FFF70EF97F4B0C9C9C4664440022230598
:1045E000FFF725F906000F0002000B000898099953
:1045F000FFF75CF900280AD00A9B3000013B390024
:104600000A930022714BFFF7F8F806000F000A9A90
:10461000330063323900C62A12D8022226980425B4
:1046200010400B9A0C90002A25D1259B042B05D90C
:10463000002800D0A1E0259B043B0B93042541E01A
:104640000222269810400B9A0C90002A12D1259B2A
:10465000052B76D9002872D1259B0525053B0B93A8
:1046600034E0802212069446229B0893239B6344E5
:10467000099330E605250B4300D1F6E60898099921
:10468000554A564BFFF720F9002808D00898099999
:104690000022534BFFF70AF9002800D0E5E6249BDF
:1046A000002B1CD00D9B002B19D0249B013B249385
:1046B000259BAB4204D90C9B002B5AD002230C93B0
:1046C00000230B930A9B002B00D131E6089809992F
:1046D00032003B00FFF791F80890099128E6259BEE
:1046E000AB42EDD90C9B002B43D000230B9302333C
:1046F0000C93E7E78020269B3A4A00061A40802365
:1047000084460294089C099D2900DB00134304930E
:10471000259B6144220003930B00009201938EE6D7
:104720000524A8E600230B930A93023304250C9377
:10473000FEE553468C46013B63441B1A72E6022396
:104740000C930525C2E70423EDE58020089E099F10
:10475000000639008446269A224B61441340049394
:104760000B9B32000393249B02930B000092019356
:10477000F3E5259B5B1B0B93A4E7022304250C9315
:10478000A0E79C1A013C76E601FCFFFFFB799F50F5
:104790001344D33FB3C8608B288AC63F0000F03F64
:1047A0000000F83F61436F63A787D23F71A3790987
:1047B0004F930A400000E03F1655B5BBB16B024075
:1047C000EF39FAFE422EE63F00002C400000244064
:1047D00000001840FF0300002D431CEBE2361A3F97
:1047E00080842E41FFF7FFFFF0B5DE4657464E4668
:1047F0004546E0B5A5B01E002E9B92460C93CD4ACF
:10480000CD4B80468B461A60002900D1EAE1002397
:1048100030789946002800D1ECE1C84B4C460B9308
:10482000C74B454657460E930AE0631C9846220044
:104830003B005946A84744463078002800D187E01D
:1048400001362528F1D108239A46043B9946023BBC
:104850009846013B00229C460D943078711C030061
:10486000203BDBB2102B03D80B9C9B00E3589F46E8
:104870000300303B89460D9C092B3AD9002398460A
:104880002A2800D1C1E000239A462E284BD00300ED
:10489000683BDBB2122B1ED80E999B00CB589F466B
:1048A00063460E001A43D8E743460E001A43D4E786
:1048B0004B460E001A43D0E710230E001A43CCE7F4
:1048C00053460E001A43C8E780235B001A43FF3BA0
:1048D0009C467078E1444E4667284FD82428A4D9D6
:1048E0000300253BDBB2422B9FD896499B00CB5857
:1048F0009F46002394461E0000E00131B3009B193F
:104900005B001E180878303E0300303B092BF4D9B9
:104910000123624689469C460023B0469A460E0013
:10492000E1442E28B3D13021802049428C46C0007A
:10493000024370784B4684446146092900D86CE1F3
:104940002A2800D17AE101239C464E46E1449EE7A5
:10495000A146A846BA46CA4503D801235B42534440
:10496000994653464A4659460020C047200025B084
:10497000F0BCBB46B246A946A046F0BD0300693B69
:10498000DBB20D930F2B00D94FE7012199408C46E4
:104990006D49894661464B4619400F916346494629
:1049A0000B4200D028E10D9B0A2B3AD0072B00D0F8
:1049B0003BE70C9B190008C98846002B00D14BE14E
:1049C00021200243914614A98C461F220F216244E4
:1049D0008C4651460D950C91A24615000F9902E0A8
:1049E00020290CD0130064461C4020003730092CCD
:1049F00000D80738013168541A090F2BF0D80C9BE6
:104A000054460D9D9A460F9133E10C9B02CB88468C
:104A1000002947DB0C9301239C4670784E46E14405
:104A200031E70C9B02CB14935346002B00D138E1A5
:104A30009C4608780B000C908C44002801D100F0B3
:104A400098FC89466146944603E05A780133002A6F
:104A500001D08B42F9D1494662465B1A0C900F9304
:104A6000530500D520E10223180010400D90134299
:104A700000D1CBE30D930B1BB1469A465E460C98D2
:104A800022003B003100A84753460134185D00283E
:104A9000F6D1B3464E460D9B002B00D0C7E1149BC8
:104AA0000C93C9E60C9301239C46283849420243E3
:104AB000884670784E46E144E5E670786C2800D16F
:104AC0007FE180235B001A43FF3B9C46E14402E701
:104AD00080239B001A4301239C467078E144FAE648
:104AE0007078682800D173E180231A437F3B9C468D
:104AF000E144F0E6672800D103E1472800D15AE1FC
:104B0000452800D15AE10492072142460C9B0392AA
:104B1000073352468B43190002920CC928000092B9
:104B200001930C9122003B005946FFF79FFB0400C4
:104B300082E6C046E9470010E42B0120E07107102F
:104B4000247207107072071041900000462800D1AF
:104B5000DBE00492072142460C9B03920733524646
:104B60008B43190002920CC92800009201930C910A
:104B700022003B005946FFF725F904005CE6631C60
:104B8000984622003B0059462520A847444653E654
:104B90000C9B04330D93631C9946920700D422E1C9
:104BA0000C9B2200187859463B00A84743464444D2
:104BB000012B00D885E23300B8462E005F46250061
:104BC0004C46994622004346013439002020B04724
:104BD000AC42F7D12C00BB46350047464E460D9BF4
:104BE0000C9329E6DB4B3078984600239946002841
:104BF00000D012E60024AEE66F2800D188E000D88D
:104C00000BE31023782800D1CFE09A430A239C4677
:104C100000230F930A330D9380E05646B1008919A3
:104C2000490001330E181878303E01003039092947
:104C3000F4D9B2461E000133994628E60C9B023691
:104C400002CB8A46C9435046C917084082460C9396
:104C50003078731C99461AE61023100098431133DC
:104C60001843814680201300C0000340024200D157
:104C7000A9E64B4606930823059353460493102355
:104C80000393002302930F9B220001931CAB00931C
:104C900059463B002800FEF79FFF434604000C9353
:104CA000CAE501235B42C3E60F9B534501D9534636
:104CB0000F930223180010400D90134200D1B7E16A
:104CC0000D93D1460B1B9A463300A1442E002200BF
:104CD0004D460C98B9465F469B4608E04B46390066
:104CE000541CB0475346185D002877D022009542E7
:104CF000F4D15B46BB464F46A94635004C461E00E4
:104D0000C9E680231B011A43FDE620231A4320E74E
:104D100008239C4600230F9308330D938023110032
:104D2000DB0019401A4200D116E10D239A4310000E
:104D3000802302009B001A401492184200D0C2E166
:104D4000802302005B001A4091460C9A04320F92B5
:104D5000184200D0B7E2430600D59FE1030600D415
:104D600019E30C9B1B880993002B00D0FCE1103346
:104D70009843002900D1F7E1002399464346059363
:104D8000534604930D9B069003930023D2E05828CA
:104D900008D0622867D102239C4600230F93023378
:104DA0000D93BBE720231A43103B9C4600230F932F
:104DB00010330D93B2E780231B011A4320231A43BB
:104DC000A1E6C0239B001A43F31C9946B07882E504
:104DD000C0231A43F31C9946B0787CE535005E4643
:104DE000BB464F4657E64346012B00D863E1631E9E
:104DF00043449A463300B9462E005F4655469B46CB
:104E0000A24622004B46013439002020B047AC4274
:104E1000F7D135005E46BB464F46A14654460C9B33
:104E20004A46187859463B004444A847D7E6A1466D
:104E30000F9B984500D832E64444E41A3300B84644
:104E40002E005F4625004C46994622004346013419
:104E500039002020B047AC42F7D12C00BB463500CA
:104E600047464E461BE680231000DB0018401A42DE
:104E700000D10FE1112118008A430D920D9A802371
:104E800011009B0019408C461A4269D18023110001
:104E90005B00194089460C9904310F911A4200D0E9
:104EA000CAE113005B0600D5F0E013001B0600D436
:104EB00059E20C9B00229B5ED9175A184A4092B2C5
:104EC000D90F0C91002B00D1F9E1100014AA9446DF
:104ED00042461F23149252466344A84616944D46F8
:104EE0000400B946B2461F00159201E0202D0FD0F4
:104EF00020000A21FEF73CFA01357E19303131706D
:104F000020000A21FEF734FA26000400092EEDD80D
:104F1000149B4F46A94645469846159B56469A46C9
:104F2000169C0D9B069343460593534604930A2310
:104F300003930C9B02934B4601931CAB22000093FE
:104F400059463B002800FEF747FE0F9B04000C93D8
:104F500072E4C046293B00100C239A431000E7E698
:104F600007220C9B07339343013294469C446246CC
:104F70000C920CCBD90F0F911100194300D191E085
:104F8000D9171391129151401091139959401191D1
:104F900010981199129A139B801A994110901191AF
:104FA00014AA0023944642469946149252461F334F
:104FB0006344A846B24616944E46109C119DB946CD
:104FC00015921F0001E0202E10D0200029000A2297
:104FD0000023FEF70BFA013630322B00BA550D00D4
:104FE00022000400002BEED1092AECD8149B109467
:104FF000119545469846159B4F46B14656469A46EA
:10500000169C0D9B069343460593534604930A232F
:1050100003930F9B02934B4601931CAB220000931A
:1050200059463B002800FEF7D7FD0400FFF704FCBB
:105030000F9B984500D8C1E18023DB000D934346C8
:105040000F9A1B199B1A994633002E004D46B946FC
:105050005F469B460C9122004B46013439002020CC
:10506000B047AC42F7D143460C9901330F930B780C
:1050700035000C935E46BB464F46002B00D10EE533
:105080000D9B002B00D1F6E4002319E60C9B1B7846
:105090001A0015E710239A430D92EFE60C9B1B783C
:1050A000099361E6002399460028AAD10022002333
:1050B0001092119374E70C9B2200187859463B001C
:1050C000A8474C468BE50C9AFA3BFF3B07329A43C4
:1050D0000133994691444B460C93136852681592DC
:1050E0001A4306D11032904300220992002900D0C1
:1050F00081E06122810600D54122D2B20A9214AA2F
:1051000091460A9A00210A3A149242461792524650
:1051100018925A460991B3461F311E000F9B49440D
:10512000BA4619941A950024674698468946159DF3
:1051300016901B920AE03032D2B24B4601341A5517
:10514000A8454AD0202C4AD006000D003A00002382
:1051500030002900FEF74AF9D2B2092AEBD9149B94
:105160009C466244D2B2E8E76123820600D541231F
:10517000DBB20A3B0C93434614A91F228C461593BD
:1051800053466244A046B2464C461797A9461700BC
:10519000099D0D9E1490169308E03033DBB2013464
:1051A0003B55B5420ED3202C0CD005003100280011
:1051B000FEF7DEF8CBB20929EFD90C9A9446634486
:1051C000DBB2ECE7159B4D46A14644469846169B3C
:1051D000564614989A46179FD0E5B742B2D9179B06
:1051E00057469846189B5E469A461B9B09949B46D9
:1051F0001698199C1A9D43460593534604930D9B9C
:105200000690039300230293099B05E70F9B9845A3
:1052100000D914E701330F932DE4102311009943B3
:105220000D91692800D0BAE080231000DB001840FF
:105230001A4200D122E61DE60C9B1B68DA0F110012
:10524000002B00D18CE0DA179818504014AA914630
:1052500042461F23149252464B44A046A946169735
:1052600004006546B2461F000C91159201E0202D06
:105270000FD020000A21FEF77BF801357E1930316E
:10528000317020000A21FEF773F826000400092E71
:10529000EDD8149B444698460C9BAC461900159BD0
:1052A00056464D469A46169F0D9B029106934346DD
:1052B0000593534604930A23039363463CE6002870
:1052C00000D02EE602E60C9B1B689946002B03D10A
:1052D00010339843002938D16123820600D5412339
:1052E000DBB20A3B0C9343461693534614A91F2284
:1052F0008C4617932B006244A0464D46B246189741
:1053000099461700149C0D9E159008E03033DBB2CF
:1053100001343B55B5420ED3202C0CD00500310092
:105320002800FEF725F8CBB20929EFD90C9A94464C
:105330006344DBB2ECE7169B149444469846179BF3
:1053400056464D469A461598189F43460593534630
:1053500004930D9B0690039300230293149BEBE5AB
:105360000028A1D172E70C9B1B68D9175A184A4034
:10537000A6E580231000DB0018409C460F901A42DF
:105380000FD00220030013400F93104219D00023C6
:10539000A1460F934CE50C9B1B680993E4E40A00BB
:1053A00034E40223180010400D90134200D03EE573
:1053B0004346002B00D042E6FFF771FB01330F9309
:1053C0007FE463460D93F3E710B50C0084B00394BB
:1053D000012402A902900093034813006242FFF7E0
:1053E00003FA04B010BDC046B53D001010B5094A1F
:1053F0000300146884B0002C08D0012200910648F4
:10540000524203A9A047012004B010BD00F09CF94E
:105410000020F9E7E42B0120A53D001000BEFDE7C8
:1054200010B5FFF7FBFFC04670B5FDF795FE074DC1
:10543000074EB54209D20024013E761BB60808CDBE
:10544000984723000134B342F9D170BDB45C071012
:10545000BC5C0710030010B5080011001B689847DA
:1054600010BDC046F0B5C64600B5437D07000C0030
:105470001600002B46D0002A17DD0B780A2B24D00B
:1054800000239846012E13D001252900635C0135C5
:105490000A2B26D0B542F8D1464509DCA419013CB7
:1054A00023780D3B5A4253413B7580BCB846F0BD52
:1054B0004346E018A419F11A013C3B689847237849
:1054C0000D3B5A4253413B75EFE7037D002BD7D18B
:1054D00002210F483B689847012EDFD001239846F0
:1054E000D2E7631E5B5C0D2BD4D0884504DA4346BB
:1054F000C91AE0183B689847022105483B68A8464E
:105500009847C7E70368110020009847CDE7C046D9
:10551000D0730710F0B5C6460B6806000C0000B546
:10552000802B06D05A1C2260E418267180BCB84635
:10553000F0BD0F4B1D68002D16D00B1D98460D4F6A
:1055400002E02D69002D0FD02B68002BF9D03B68AD
:10555000002B01D0AB42F4D1280041462268FFF76E
:1055600081FF2D69002DEFD101220023DBE7C0462A
:10557000D8270120E0270120F0B54546DE464E46FB
:105580005746E0B583B091461C0080460D00FDF7FC
:1055900009FB0023304A12184B41002B02DA01228A
:1055A0002E4B52422E4908008A4670F02DFB070010
:1055B0006B1C03D1404670F09DFA0500002C27D0EB
:1055C000284E294B1C68002C18D04B46002B21D1AB
:1055D000264B994602E02469002C0FD02368002B4B
:1055E000F9D04B461B68002B01D09C42F3D1200020
:1055F0002A004146B0472469002CEFD1002F26D164
:10560000280003B0F0BCBB46B246A946A046F0BD98
:10561000174ED6E7154B99460A239B4602E02469AC
:10562000002CEBD02368002BF9D04B461B68002BD5
:1056300001D0A342F3D12A0041462000B0476B4677
:105640005A462000DA71D91D0122B047E7E75046DB
:1056500070F092FAD4E7C04640420F00FFFFFF7F90
:10566000A812002065540010D8270120E02701204F
:10567000555400100A4A1368002B05D10CE01A009B
:105680001B691032002B07D08342F8D1002902D1C8
:1056900018691060196170470029FCD01060FAE7A2
:1056A000D827012010B500F0ADF900F0E9FB01208A
:1056B00010BDC046F0B5CE46474680B583B06B46B8
:1056C0000600DD1D2870FDF76DFA0023194A121837
:1056D0004B41002B02DA0122174B524217490800B6
:1056E000884670F091FA164B81461C68002C14D045
:1056F000144F02E02469002C0FD02368002BF9D04E
:105700003B68002B01D09C42F4D1200001222900EB
:10571000FFF7A8FE2469002CEFD14B46002B05D1E2
:10572000300003B0C0BCB946B046F0BD404670F092
:1057300023FAF5E740420F00FFFFFF7FA812002089
:10574000D8270120E027012070B5040070F0D2F9BD
:1057500001230100050001222000FFF70DFF084B87
:105760001C68002C06D06368002B05D0984724697C
:10577000002CF8D1280070BD2469002CF3D1F9E782
:10578000D8270120F0B5CE46474680B5A3B0040027
:105790000D00FDF707FA0023274A12184B41002B92
:1057A00002DA0122254B5242254E300070F02CFACD
:1057B00000232200019307002B00224801A9FFF7D4
:1057C00003FE214B804699461C68019B002B1AD092
:1057D000002C2FD01D4D02E02469002C0FD023682F
:1057E000002BF9D02B68002B01D0A342F4D120006C
:1057F000019A02A9FFF736FE2469002CEFD14B462F
:105800001C6800230193002C06D06368002B0BD08A
:1058100098472469002CF8D1002F07D1404623B0C7
:10582000C0BCB946B046F0BD2469ECE7300070F06A
:10583000A3F9F3E70194EFE740420F00FFFFFF7F7A
:10584000A812002015550010D8270120E0270120BC
:105850000FB400B583B004A901C90191FFF792FF0D
:1058600003B008BC04B01847F0B5002915DD0E4B95
:105870000D271A680D4B0E4CD3185D426B4145182D
:1058800020215B001E5F0478A64207D0936919426D
:10589000FCD101301460A842F5D1F0BD93691942E2
:1058A000FCD11760F2E7C0468C2D01200080FCBFC0
:1058B000882D0120204B70B504000D1E1E682ADDC6
:1058C000002010211D4B013C1A689369194214D124
:1058D000013093691942FCD1136823548542F4D1F5
:1058E000002E08D050239363516B183B0B40144992
:1058F0008C4662441360280070BD002E08D05023EF
:105900009363516B183B0B400D498C466244136006
:105910000028F1D10CE0002E0AD05022074B1B6862
:105920009A63596B183A0A4005498C4663441A60D9
:1059300003204042E0E7C0466C1E01208C2D012070
:1059400034100000064B10B51B68002B06D0002158
:10595000044A12689163044A1068984710BDC04613
:105960006C1E01208C2D0120741E01200822034B87
:1059700019688B691A42FCD17047C0468C2D0120F2
:10598000F8B51A4F1A4B3A680500D31858424341EC
:10599000184E14331C003368002D02D0002B0FD09A
:1059A000F8BD002BFCD0002120009563FCF7B8F86F
:1059B00020001149FCF710FA104B35601D60EFE72D
:1059C0000E4B200019600C493560FCF7E1F801210D
:1059D0002000FCF7A5F850223B689A63596B183AEF
:1059E0000A4007498C4663441A60D9E78C2D012090
:1059F0000080FCBF6C1E012045590010741E012060
:105A0000341000000D4B10B51B780D4B0D4C1B785E
:105A10000D4B02211B780D4B00202360FBF7CCFEC1
:105A200002210120FBF7C8FEE12120684902FDF7B1
:105A300007F901210648FFF71DFE10BD70430B104A
:105A40006C430B108C2D012068430B100040034069
:105A5000D01100207047C0460022014B1A707047D9
:105A6000AB2D01204B790020FF2B0BD18B79002B24
:105A700008D1CB79012B05D1082A03D9024B8A78AA
:105A800009301A707047C046AB2D012001207047C5
:105A900010B5012913D112495379107909781B02E5
:105AA00003430020994200D010BD5378012B08D049
:105AB000022BF9D1642200210020FDF797FA012082
:105AC000F2E7D37891781B021943480ADB0501D429
:105AD000012040427F238A05D20F1940FDF70EFBBB
